

Microchip Technology PIC PRO Macro Assembler V1.38 build -256452561 
                                                                                               Thu Jan 04 19:04:17 2018

Microchip Technology Omniscient Code Generator v1.38 (PRO mode) build 201607010351
     1                           	processor	12F675
     2                           	opt	pw 120
     3                           	opt	pm
     4                           	psect	cinit,global,class=CODE,merge=1,delta=2
     5                           	psect	bssBANK0,global,class=BANK0,space=1,delta=1
     6                           	psect	cstackCOMMON,global,class=COMMON,space=1,delta=1
     7                           	psect	cstackBANK0,global,class=BANK0,space=1,delta=1
     8                           	psect	maintext,global,class=CODE,split=1,delta=2
     9                           	psect	text1,local,class=CODE,merge=1,delta=2
    10                           	psect	text2,local,class=CODE,merge=1,delta=2
    11                           	psect	intentry,global,class=CODE,delta=2
    12                           	psect	text3,local,class=CODE,merge=1,delta=2
    13                           	psect	pa_nodes,global,class=CODE,delta=2
    14                           	dabs	1,0x5E,2
    15  0000                     	;# 
    16  0001                     	;# 
    17  0002                     	;# 
    18  0003                     	;# 
    19  0004                     	;# 
    20  0005                     	;# 
    21  000A                     	;# 
    22  000B                     	;# 
    23  000C                     	;# 
    24  000E                     	;# 
    25  000E                     	;# 
    26  000F                     	;# 
    27  0010                     	;# 
    28  0019                     	;# 
    29  001E                     	;# 
    30  001F                     	;# 
    31  0081                     	;# 
    32  0085                     	;# 
    33  008C                     	;# 
    34  008E                     	;# 
    35  0090                     	;# 
    36  0095                     	;# 
    37  0096                     	;# 
    38  0096                     	;# 
    39  0099                     	;# 
    40  009A                     	;# 
    41  009A                     	;# 
    42  009B                     	;# 
    43  009C                     	;# 
    44  009D                     	;# 
    45  009E                     	;# 
    46  009F                     	;# 
    47  0019                     _CMCON	set	25
    48  0005                     _GPIO	set	5
    49  000B                     _INTCONbits	set	11
    50  0001                     _TMR0	set	1
    51  0029                     _GPIO1	set	41
    52  002A                     _GPIO2	set	42
    53  002B                     _GPIO3	set	43
    54  009F                     _ANSEL	set	159
    55  0081                     _OPTION_REGbits	set	129
    56  0428                     _TRISIO0	set	1064
    57  0429                     _TRISIO1	set	1065
    58  042A                     _TRISIO2	set	1066
    59  042B                     _TRISIO3	set	1067
    60  042C                     _TRISIO4	set	1068
    61  042D                     _TRISIO5	set	1069
    62                           
    63                           ; #config settings
    64  0000                     
    65                           	psect	cinit
    66  000C                     start_initialization:	
    67  000C                     __initialization:	
    68                           
    69                           ; Clear objects allocated to BANK0
    70  000C  1283               	bcf	3,5	;RP0=0, select bank0
    71  000D  01A0               	clrf	__pbssBANK0& (0+127)
    72  000E  01A1               	clrf	(__pbssBANK0+1)& (0+127)
    73  000F  01A2               	clrf	(__pbssBANK0+2)& (0+127)
    74  0010  01A3               	clrf	(__pbssBANK0+3)& (0+127)
    75  0011  01A4               	clrf	(__pbssBANK0+4)& (0+127)
    76  0012  01A5               	clrf	(__pbssBANK0+5)& (0+127)
    77  0013                     end_of_initialization:	
    78                           ;End of C runtime variable initialization code
    79                           
    80  0013                     __end_of__initialization:	
    81  0013  0183               	clrf	3
    82  0014  2861               	ljmp	_main	;jump to C main() function
    83                           
    84                           	psect	bssBANK0
    85  0020                     __pbssBANK0:	
    86  0020                     _cntRST:	
    87  0020                     	ds	2
    88  0022                     _cntWD:	
    89  0022                     	ds	2
    90  0024                     _GPIO4mirror:	
    91  0024                     	ds	1
    92  0025                     _lastGPIO4mirror:	
    93  0025                     	ds	1
    94                           
    95                           	psect	cstackCOMMON
    96  0000                     __pcstackCOMMON:	
    97  0000                     ??_SETpinRST:	
    98  0000                     ??_main:	
    99                           ; 1 bytes @ 0x0
   100                           
   101  0000                     ??i1_SETpinRST:	
   102                           ; 1 bytes @ 0x0
   103                           
   104                           
   105                           	psect	cstackBANK0
   106  0026                     __pcstackBANK0:	
   107                           ; 1 bytes @ 0x0
   108                           
   109  0026                     ?_myIsr:	
   110  0026                     ?i1_SETpinRST:	
   111                           ; 1 bytes @ 0x0
   112                           
   113  0026                     ?_main:	
   114                           ; 1 bytes @ 0x0
   115                           
   116  0026                     i1SETpinRST@Status:	
   117                           ; 2 bytes @ 0x0
   118                           
   119                           
   120                           ; 2 bytes @ 0x0
   121  0026                     	ds	2
   122  0028                     ??_myIsr:	
   123                           
   124                           ; 1 bytes @ 0x2
   125  0028                     	ds	2
   126  002A                     ?_SETpinRST:	
   127  002A                     SETpinRST@Status:	
   128                           ; 1 bytes @ 0x4
   129                           
   130                           
   131                           ; 2 bytes @ 0x4
   132  002A                     	ds	2
   133                           
   134                           	psect	maintext
   135  0061                     __pmaintext:	
   136 ;;
   137 ;;Main: autosize = 0, tempsize = 0, incstack = 0, save=0
   138 ;;
   139 ;; *************** function _main *****************
   140 ;; Defined at:
   141 ;;		line 125 in file "main.c"
   142 ;; Parameters:    Size  Location     Type
   143 ;;		None
   144 ;; Auto vars:     Size  Location     Type
   145 ;;		None
   146 ;; Return value:  Size  Location     Type
   147 ;;                  2   58[None  ] int 
   148 ;; Registers used:
   149 ;;		wreg, status,2, status,0, pclath, cstack
   150 ;; Tracked objects:
   151 ;;		On entry : B00/0
   152 ;;		On exit  : B00/0
   153 ;;		Unchanged: A00/0
   154 ;; Data sizes:     COMMON   BANK0
   155 ;;      Params:         0       0
   156 ;;      Locals:         0       0
   157 ;;      Temps:          0       0
   158 ;;      Totals:         0       0
   159 ;;Total ram usage:        0 bytes
   160 ;; Hardware stack levels required when called:    3
   161 ;; This function calls:
   162 ;;		_SETpinRST
   163 ;; This function is called by:
   164 ;;		Startup code after reset
   165 ;; This function uses a non-reentrant model
   166 ;;
   167                           
   168                           
   169                           ;psect for function _main
   170  0061                     _main:	
   171                           
   172                           ;main.c: 128: CMCON = 0x07;
   173                           
   174                           ;incstack = 0
   175                           ; Regs used in _main: [wreg+status,2+status,0+pclath+cstack]
   176  0061  3007               	movlw	7
   177  0062  0099               	movwf	25	;volatile
   178                           
   179                           ;main.c: 130: ANSEL = 0x00;
   180  0063  1683               	bsf	3,5	;RP0=1, select bank1
   181  0064  019F               	clrf	31	;volatile
   182                           
   183                           ;main.c: 133: OPTION_REGbits.PSA = 0b0;
   184  0065  1181               	bcf	1,3	;volatile
   185                           
   186                           ;main.c: 134: OPTION_REGbits.PS = 0b110;
   187  0066  0801               	movf	1,w	;volatile
   188  0067  39F8               	andlw	-8
   189  0068  3806               	iorlw	6
   190  0069  0081               	movwf	1	;volatile
   191                           
   192                           ;main.c: 135: OPTION_REGbits.T0CS = 0b0;
   193  006A  1281               	bcf	1,5	;volatile
   194                           
   195                           ;main.c: 138: GPIO = 0xFF;
   196  006B  30FF               	movlw	255
   197  006C  1283               	bcf	3,5	;RP0=0, select bank0
   198  006D  0085               	movwf	5	;volatile
   199                           
   200                           ;main.c: 140: TRISIO0 = 0b1 ;
   201  006E  1683               	bsf	3,5	;RP0=1, select bank1
   202  006F  1405               	bsf	5,0	;volatile
   203                           
   204                           ;main.c: 141: TRISIO1 = 0b0;
   205  0070  1085               	bcf	5,1	;volatile
   206                           
   207                           ;main.c: 142: TRISIO2 = 0b1 ;
   208  0071  1505               	bsf	5,2	;volatile
   209                           
   210                           ;main.c: 143: TRISIO3 = 0b1 ;
   211  0072  1585               	bsf	5,3	;volatile
   212                           
   213                           ;main.c: 144: TRISIO4 = 0b1 ;
   214  0073  1605               	bsf	5,4	;volatile
   215                           
   216                           ;main.c: 145: TRISIO5 = 0b1 ;
   217  0074  1685               	bsf	5,5	;volatile
   218                           
   219                           ;main.c: 147: SETpinRST(0b1);
   220  0075  1283               	bcf	3,5	;RP0=0, select bank0
   221  0076  01AA               	clrf	SETpinRST@Status
   222  0077  0AAA               	incf	SETpinRST@Status,f
   223  0078  01AB               	clrf	SETpinRST@Status+1
   224  0079  209A               	fcall	_SETpinRST
   225                           
   226                           ;main.c: 149: GPIO4mirror = GPIO & maskGPIO4;
   227  007A  1283               	bcf	3,5	;RP0=0, select bank0
   228  007B  0805               	movf	5,w	;volatile
   229  007C  00A4               	movwf	_GPIO4mirror
   230  007D  3010               	movlw	16
   231  007E  05A4               	andwf	_GPIO4mirror,f
   232                           
   233                           ;main.c: 151: cntWD = 200;
   234  007F  30C8               	movlw	200
   235  0080  00A2               	movwf	_cntWD
   236  0081  30D0               	movlw	208
   237  0082  01A3               	clrf	_cntWD+1
   238                           
   239                           ;main.c: 152: cntRST = 2000;
   240  0083  00A0               	movwf	_cntRST
   241  0084  3007               	movlw	7
   242  0085  00A1               	movwf	_cntRST+1
   243                           
   244                           ;main.c: 155: TMR0 = 255;
   245  0086  30FF               	movlw	255
   246  0087  0081               	movwf	1	;volatile
   247                           
   248                           ;main.c: 157: INTCONbits.TMR0IE = 0b1;
   249  0088  168B               	bsf	11,5	;volatile
   250                           
   251                           ;main.c: 158: INTCONbits.GIE = 0b1;
   252  0089  178B               	bsf	11,7	;volatile
   253  008A                     l59:	
   254                           ;main.c: 160: while(1) ;
   255                           
   256  008A  288A               	goto	l59
   257  008B                     __end_of_main:	
   258                           
   259                           	psect	text1
   260  009A                     __ptext1:	
   261 ;; *************** function _SETpinRST *****************
   262 ;; Defined at:
   263 ;;		line 163 in file "main.c"
   264 ;; Parameters:    Size  Location     Type
   265 ;;  Status          2    4[BANK0 ] int 
   266 ;; Auto vars:     Size  Location     Type
   267 ;;		None
   268 ;; Return value:  Size  Location     Type
   269 ;;                  1    wreg      void 
   270 ;; Registers used:
   271 ;;		wreg, status,2, status,0
   272 ;; Tracked objects:
   273 ;;		On entry : B00/0
   274 ;;		On exit  : A00/0
   275 ;;		Unchanged: A00/0
   276 ;; Data sizes:     COMMON   BANK0
   277 ;;      Params:         0       2
   278 ;;      Locals:         0       0
   279 ;;      Temps:          0       0
   280 ;;      Totals:         0       2
   281 ;;Total ram usage:        2 bytes
   282 ;; Hardware stack levels used:    1
   283 ;; Hardware stack levels required when called:    2
   284 ;; This function calls:
   285 ;;		Nothing
   286 ;; This function is called by:
   287 ;;		_main
   288 ;; This function uses a non-reentrant model
   289 ;;
   290                           
   291                           
   292                           ;psect for function _SETpinRST
   293  009A                     _SETpinRST:	
   294                           
   295                           ;main.c: 165: if (Status) {TRISIO1 = 0b1; GPIO1 = 0b1;}
   296                           
   297                           ;incstack = 0
   298                           ; Regs used in _SETpinRST: [wreg+status,2+status,0]
   299  009A  082A               	movf	SETpinRST@Status,w
   300  009B  042B               	iorwf	SETpinRST@Status+1,w
   301  009C  1903               	btfsc	3,2
   302  009D  289F               	goto	l65
   303  009E  2891               	ljmp	PL2	;call to abstracted procedure
   304  009F                     l65:	
   305                           
   306                           ;main.c: 166: else {GPIO1 = 0b0; TRISIO1 = 0b0;}
   307  009F  2896               	ljmp	PL4	;call to abstracted procedure
   308  00A0                     __end_of_SETpinRST:	
   309                           
   310                           	psect	text2
   311  0015                     __ptext2:	
   312 ;; *************** function _myIsr *****************
   313 ;; Defined at:
   314 ;;		line 85 in file "main.c"
   315 ;; Parameters:    Size  Location     Type
   316 ;;		None
   317 ;; Auto vars:     Size  Location     Type
   318 ;;		None
   319 ;; Return value:  Size  Location     Type
   320 ;;                  1    wreg      void 
   321 ;; Registers used:
   322 ;;		wreg, status,2, status,0, pclath, cstack
   323 ;; Tracked objects:
   324 ;;		On entry : 0/0
   325 ;;		On exit  : 100/0
   326 ;;		Unchanged: 0/0
   327 ;; Data sizes:     COMMON   BANK0
   328 ;;      Params:         0       0
   329 ;;      Locals:         0       0
   330 ;;      Temps:          0       2
   331 ;;      Totals:         0       2
   332 ;;Total ram usage:        2 bytes
   333 ;; Hardware stack levels used:    1
   334 ;; Hardware stack levels required when called:    1
   335 ;; This function calls:
   336 ;;		i1_SETpinRST
   337 ;; This function is called by:
   338 ;;		Interrupt level 1
   339 ;; This function uses a non-reentrant model
   340 ;;
   341                           
   342                           
   343                           ;psect for function _myIsr
   344  0015                     _myIsr:	
   345                           
   346                           ;main.c: 88: if(INTCONbits.TMR0IE && INTCONbits.TMR0IF)
   347  0015  1A8B               	btfsc	11,5	;volatile
   348  0016  1D0B               	btfss	11,2	;volatile
   349  0017  2859               	goto	i1l56
   350                           
   351                           ;main.c: 89: {
   352                           ;main.c: 90: INTCONbits.TMR0IF = 0b0;
   353  0018  110B               	bcf	11,2	;volatile
   354                           
   355                           ;main.c: 91: TMR0 = 156;
   356  0019  309C               	movlw	156
   357  001A  0081               	movwf	1	;volatile
   358                           
   359                           ;main.c: 93: if((GPIO2==0b0) && (GPIO3==0b0))
   360  001B  1D05               	btfss	5,2	;volatile
   361  001C  1985               	btfsc	5,3	;volatile
   362  001D  2829               	goto	i1l637
   363                           
   364                           ;main.c: 94: {
   365                           ;main.c: 95: if (cntRST>0) cntRST--;
   366  001E  0820               	movf	_cntRST,w
   367  001F  0421               	iorwf	_cntRST+1,w
   368  0020  1903               	btfsc	3,2
   369  0021  282D               	goto	i1l48
   370  0022  3001               	movlw	1
   371  0023  02A0               	subwf	_cntRST,f
   372  0024  3000               	movlw	0
   373  0025  1C03               	skipc
   374  0026  03A1               	decf	_cntRST+1,f
   375  0027  02A1               	subwf	_cntRST+1,f
   376  0028  282D               	goto	i1l48
   377  0029                     i1l637:	
   378                           
   379                           ;main.c: 97: else
   380                           ;main.c: 98: {
   381                           ;main.c: 99: cntRST=2000;
   382  0029  30D0               	movlw	208
   383  002A  00A0               	movwf	_cntRST
   384  002B  3007               	movlw	7
   385  002C  00A1               	movwf	_cntRST+1
   386  002D                     i1l48:	
   387                           
   388                           ;main.c: 100: }
   389                           ;main.c: 102: lastGPIO4mirror=GPIO4mirror;
   390  002D  0824               	movf	_GPIO4mirror,w
   391  002E  00A5               	movwf	_lastGPIO4mirror
   392                           
   393                           ;main.c: 103: GPIO4mirror=GPIO & maskGPIO4;
   394  002F  0805               	movf	5,w	;volatile
   395  0030  00A4               	movwf	_GPIO4mirror
   396  0031  3010               	movlw	16
   397  0032  05A4               	andwf	_GPIO4mirror,f
   398                           
   399                           ;main.c: 105: if(GPIO4mirror!=lastGPIO4mirror)
   400  0033  0824               	movf	_GPIO4mirror,w
   401  0034  0625               	xorwf	_lastGPIO4mirror,w
   402  0035  1903               	skipnz
   403  0036  283B               	goto	i1l645
   404                           
   405                           ;main.c: 106: {
   406                           ;main.c: 107: cntWD = 200;
   407  0037  30C8               	movlw	200
   408  0038  00A2               	movwf	_cntWD
   409  0039  01A3               	clrf	_cntWD+1
   410                           
   411                           ;main.c: 108: }
   412  003A  2845               	goto	i1l649
   413  003B                     i1l645:	
   414                           
   415                           ;main.c: 109: else
   416                           ;main.c: 110: {
   417                           ;main.c: 111: if(cntWD>0) cntWD--;
   418  003B  0822               	movf	_cntWD,w
   419  003C  0423               	iorwf	_cntWD+1,w
   420  003D  1903               	btfsc	3,2
   421  003E  2845               	goto	i1l649
   422  003F  3001               	movlw	1
   423  0040  02A2               	subwf	_cntWD,f
   424  0041  3000               	movlw	0
   425  0042  1C03               	skipc
   426  0043  03A3               	decf	_cntWD+1,f
   427  0044  02A3               	subwf	_cntWD+1,f
   428  0045                     i1l649:	
   429                           
   430                           ;main.c: 112: }
   431                           ;main.c: 115: if((cntWD==0) || (cntRST==0))
   432  0045  0822               	movf	_cntWD,w
   433  0046  0423               	iorwf	_cntWD+1,w
   434  0047  1903               	btfsc	3,2
   435  0048  284D               	goto	i1l653
   436  0049  0820               	movf	_cntRST,w
   437  004A  0421               	iorwf	_cntRST+1,w
   438  004B  1D03               	btfss	3,2
   439  004C  2855               	goto	i1l657
   440  004D                     i1l653:	
   441                           
   442                           ;main.c: 116: {
   443                           ;main.c: 117: SETpinRST(0b0);
   444  004D  01A6               	clrf	i1SETpinRST@Status
   445  004E  01A7               	clrf	i1SETpinRST@Status+1
   446  004F  208B               	fcall	i1_SETpinRST
   447                           
   448                           ;main.c: 118: cntWD = 200;
   449  0050  30C8               	movlw	200
   450  0051  1283               	bcf	3,5	;RP0=0, select bank0
   451  0052  00A2               	movwf	_cntWD
   452  0053  01A3               	clrf	_cntWD+1
   453                           
   454                           ;main.c: 119: }
   455  0054  2859               	goto	i1l56
   456  0055                     i1l657:	
   457                           
   458                           ;main.c: 120: else
   459                           ;main.c: 121: SETpinRST(0b1);
   460  0055  01A6               	clrf	i1SETpinRST@Status
   461  0056  0AA6               	incf	i1SETpinRST@Status,f
   462  0057  01A7               	clrf	i1SETpinRST@Status+1
   463  0058  208B               	fcall	i1_SETpinRST
   464  0059                     i1l56:	
   465  0059  1283               	bcf	3,5	;RP0=0, select bank0
   466  005A  0829               	movf	??_myIsr+1,w
   467  005B  008A               	movwf	10
   468  005C  0E28               	swapf	??_myIsr^0,w
   469  005D  0083               	movwf	3
   470  005E  0EDE               	swapf	94,f
   471  005F  0E5E               	swapf	94,w
   472  0060  0009               	retfie
   473  0061                     __end_of_myIsr:	
   474                           
   475                           	psect	intentry
   476  0004                     __pintentry:	
   477                           ;incstack = 0
   478                           ; Regs used in _myIsr: [wreg+status,2+status,0+pclath+cstack]
   479                           
   480  0004                     interrupt_function:	
   481  005E                     saved_w	set	btemp
   482  0004  00DE               	movwf	btemp
   483  0005  0E03               	swapf	3,w
   484  0006  1283               	bcf	3,5	;RP0=0, select bank0
   485  0007  00A8               	movwf	??_myIsr
   486  0008  080A               	movf	10,w
   487  0009  00A9               	movwf	??_myIsr+1
   488  000A  2815               	ljmp	_myIsr
   489                           
   490                           	psect	text3
   491  008B                     __ptext3:	
   492 ;; *************** function i1_SETpinRST *****************
   493 ;; Defined at:
   494 ;;		line 163 in file "main.c"
   495 ;; Parameters:    Size  Location     Type
   496 ;;  Status          2    0[BANK0 ] int 
   497 ;; Auto vars:     Size  Location     Type
   498 ;;		None
   499 ;; Return value:  Size  Location     Type
   500 ;;                  1    wreg      void 
   501 ;; Registers used:
   502 ;;		wreg, status,2, status,0
   503 ;; Tracked objects:
   504 ;;		On entry : 100/0
   505 ;;		On exit  : 0/0
   506 ;;		Unchanged: 0/0
   507 ;; Data sizes:     COMMON   BANK0
   508 ;;      Params:         0       2
   509 ;;      Locals:         0       0
   510 ;;      Temps:          0       0
   511 ;;      Totals:         0       2
   512 ;;Total ram usage:        2 bytes
   513 ;; Hardware stack levels used:    1
   514 ;; This function calls:
   515 ;;		Nothing
   516 ;; This function is called by:
   517 ;;		_myIsr
   518 ;; This function uses a non-reentrant model
   519 ;;
   520                           
   521                           
   522                           ;psect for function i1_SETpinRST
   523  008B                     i1_SETpinRST:	
   524                           
   525                           ;main.c: 165: if (Status) {TRISIO1 = 0b1; GPIO1 = 0b1;}
   526                           
   527                           ;incstack = 0
   528                           ; Regs used in i1_SETpinRST: [wreg+status,2+status,0]
   529  008B  0826               	movf	i1SETpinRST@Status,w
   530  008C  0427               	iorwf	i1SETpinRST@Status+1,w
   531  008D  1903               	btfsc	3,2
   532  008E  2890               	goto	i1l65
   533  008F  2891               	ljmp	PL2	;call to abstracted procedure
   534  0090                     i1l65:	
   535                           
   536                           ;main.c: 166: else {GPIO1 = 0b0; TRISIO1 = 0b0;}
   537  0090  2896               	ljmp	PL4	;call to abstracted procedure
   538  0091                     __end_ofi1_SETpinRST:	
   539  005E                     btemp	set	94	;btemp
   540  005E                     wtemp	set	94
   541  005E                     wtemp0	set	94
   542  0060                     wtemp1	set	96
   543  0062                     wtemp2	set	98
   544  0064                     wtemp3	set	100
   545  0066                     wtemp4	set	102
   546  0068                     wtemp5	set	104
   547  005F                     wtemp6	set	95
   548  005E                     ttemp	set	94
   549  005E                     ttemp0	set	94
   550  0061                     ttemp1	set	97
   551  0064                     ttemp2	set	100
   552  0067                     ttemp3	set	103
   553  005F                     ttemp4	set	95
   554  005E                     ltemp	set	94
   555  005E                     ltemp0	set	94
   556  0062                     ltemp1	set	98
   557  0066                     ltemp2	set	102
   558  0060                     ltemp3	set	96
   559  0091                     PL2:	
   560  0091  1683               	bsf	3,5	;RP0=1, select bank1
   561  0092  1485               	bsf	5,1	;volatile
   562  0093  1283               	bcf	3,5	;RP0=0, select bank0
   563  0094  1485               	bsf	5,1	;volatile
   564  0095  0008               	return
   565  0096                     __end_ofPL2:	
   566  0096                     PL4:	
   567  0096  1085               	bcf	5,1	;volatile
   568  0097  1683               	bsf	3,5	;RP0=1, select bank1
   569  0098  1085               	bcf	5,1	;volatile
   570  0099  0008               	return
   571  009A                     __end_ofPL4:	


Data Sizes:
    Strings     0
    Constant    0
    Data        0
    BSS         6
    Persistent  0
    Stack       0

Auto Spaces:
    Space          Size  Autos    Used
    COMMON            0      0       0
    BANK0            62      6      12

Pointer List with Targets:

    None.

Critical Paths under _main in COMMON

    None.

Critical Paths under _myIsr in COMMON

    None.

Critical Paths under _main in BANK0

    _main->_SETpinRST

Critical Paths under _myIsr in BANK0

    _myIsr->i1_SETpinRST

Call Graph Tables:

 ---------------------------------------------------------------------------------
 (Depth) Function   	        Calls       Base Space   Used Autos Params    Refs
 ---------------------------------------------------------------------------------
 (0) _main                                                 0     0      0     129
                          _SETpinRST
 ---------------------------------------------------------------------------------
 (1) _SETpinRST                                            2     0      2     129
                                              4 BANK0      2     0      2
 ---------------------------------------------------------------------------------
 Estimated maximum stack depth 1
 ---------------------------------------------------------------------------------
 (Depth) Function   	        Calls       Base Space   Used Autos Params    Refs
 ---------------------------------------------------------------------------------
 (2) _myIsr                                                2     2      0      74
                                              2 BANK0      2     2      0
                        i1_SETpinRST
 ---------------------------------------------------------------------------------
 (3) i1_SETpinRST                                          2     0      2      74
                                              0 BANK0      2     0      2
 ---------------------------------------------------------------------------------
 Estimated maximum stack depth 3
 ---------------------------------------------------------------------------------

 Call Graph Graphs:

 _main (ROOT)
   _SETpinRST

 _myIsr (ROOT)
   i1_SETpinRST

 Address spaces:
Name               Size   Autos  Total    Cost      Usage
BITCOMMON            0      0       0       0        0.0%
EEDATA              80      0       0       0        0.0%
NULL                 0      0       0       0        0.0%
CODE                 0      0       0       0        0.0%
BITSFR0              0      0       0       1        0.0%
SFR0                 0      0       0       1        0.0%
COMMON               0      0       0       1        0.0%
BITSFR1              0      0       0       2        0.0%
SFR1                 0      0       0       2        0.0%
STACK                0      0       0       2        0.0%
BITBANK0            3E      0       0       3        0.0%
BANK0               3E      6       C       4       19.4%
ABS                  0      0       C       5        0.0%
DATA                 0      0       C       6        0.0%


Microchip Technology PIC Macro Assembler V1.38 build -256452561 
Symbol Table                                                                                   Thu Jan 04 19:04:17 2018

      i1SETpinRST@Status 0026              __CFG_CP$OFF 0000                       PL2 0091  
                     PL4 0096                       l65 009F                       l59 008A  
           __CFG_CPD$OFF 0000                     _GPIO 0005                     i1l48 002D  
                   i1l56 0059                     i1l65 0090                     _TMR0 0001  
                   _main 0061                     btemp 005E                     ltemp 005E  
                   start 000B                     ttemp 005E                     wtemp 005E  
        _lastGPIO4mirror 0025                    ?_main 0026            __CFG_WDTE$OFF 0000  
                  _CMCON 0019                    _ANSEL 009F                    _GPIO1 0029  
                  _GPIO2 002A                    _GPIO3 002B                    i1l653 004D  
                  i1l645 003B                    i1l637 0029                    i1l657 0055  
                  i1l649 0045            __CFG_PWRTE$ON 0000                    _cntWD 0022  
                  _myIsr 0015           __CFG_BOREN$OFF 0000                    pclath 000A  
                  ltemp0 005E                    ltemp1 0062                    ltemp2 0066  
                  ltemp3 0060                    ttemp0 005E                    ttemp1 0061  
                  ttemp2 0064                    ttemp3 0067                    ttemp4 005F  
                  status 0003                    wtemp0 005E                    wtemp1 0060  
                  wtemp2 0062                    wtemp3 0064                    wtemp4 0066  
                  wtemp5 0068                    wtemp6 005F       __size_of_SETpinRST 0006  
         __CFG_MCLRE$OFF 0000          __initialization 000C             __end_of_main 008B  
                 ??_main 0000             ?i1_SETpinRST 0026                   ?_myIsr 0026  
                 _cntRST 0020        __end_of_SETpinRST 00A0                   saved_w 005E  
__end_of__initialization 0013           __pcstackCOMMON 0000            __end_of_myIsr 0061  
             __end_ofPL2 0096               __end_ofPL4 009A           _OPTION_REGbits 0081  
                ??_myIsr 0028               __pbssBANK0 0020               __pmaintext 0061  
             __pintentry 0004     __size_ofi1_SETpinRST 0006                  _TRISIO0 0428  
                _TRISIO1 0429                  _TRISIO2 042A                  _TRISIO3 042B  
                _TRISIO4 042C                  _TRISIO5 042D          SETpinRST@Status 002A  
                __ptext1 009A                  __ptext2 0015                  __ptext3 008B  
   end_of_initialization 0013                _SETpinRST 009A      start_initialization 000C  
             ?_SETpinRST 002A                ___latbits 0000            __pcstackBANK0 0026  
          ??i1_SETpinRST 0000              ??_SETpinRST 0000           __size_of_myIsr 004C  
      interrupt_function 0004              _GPIO4mirror 0024      __end_ofi1_SETpinRST 0091  
          __size_of_main 002A              i1_SETpinRST 008B               _INTCONbits 000B  
               intlevel1 0000        __CFG_FOSC$INTRCIO 0000  
