Microchip MPLAB XC8 Compiler V1.38 ()

Linker command line:

-W-3 --edf=C:\Program Files (x86)\Microchip\xc8\v1.38\dat\en_msgs.txt -cs \
  -h+dist/default/debug\SunBlind_uController.X.debug.sym \
  --cmf=dist/default/debug\SunBlind_uController.X.debug.cmf -z -Q12F675 \
  -oC:\Users\baldanza\AppData\Local\Temp\s3lc.2 \
  -Mdist/default/debug/SunBlind_uController.X.debug.map -E1 -ver=XC8 \
  -ASTACK=02Ch-05dh -pstack=STACK -ACODE=00h-03FEh -ASTRCODE=00h-03FEh \
  -ASTRING=00h-0FFhx3,0300h-03FEh -ACONST=00h-0FFhx3,0300h-03FEh \
  -AENTRY=00h-0FFhx3,0300h-03FEh -ABANK0=020h-05Dh -ARAM=020h-05Dh \
  -AABS1=020h-05Fh -ACOMMON=05Eh-05Fh -ASFR0=00h-01Fh -ASFR1=080h-0DDh \
  -preset_vec=00h,intentry=04h,init,end_init -ppowerup=CODE -pcinit=CODE \
  -pfunctab=CODE -ACONFIG=02007h-02007h -pconfig=CONFIG -DCONFIG=2 \
  -AIDLOC=02000h-02003h -pidloc=IDLOC -DIDLOC=2 -AEEDATA=00h-07Fh/02100h \
  -peeprom_data=EEDATA -DEEDATA=2 -posccal=03FFh -DCODE=2 -DSTRCODE=2 \
  -DSTRING=2 -DCONST=2 -DENTRY=2 -k \
  C:\Users\baldanza\AppData\Local\Temp\s3lc.obj \
  dist/default/debug\SunBlind_uController.X.debug.obj 

Object code version is 3.11

Machine type is 12F675



                Name                               Link     Load   Length Selector   Space Scale
C:\Users\baldanza\AppData\Local\Temp\s3lc.obj
                end_init                              B        B        1        8       0
                reset_vec                             0        0        1        0       0
                config                             2007     2007        1     400E       0
dist/default/debug\SunBlind_uController.X.debug.obj
                cinit                                 C        C        9        8       0
                intentry                              4        4        7        8       0
                text3                                8B       8B        F        8       0
                text2                                15       15       4C        8       0
                text1                                9A       9A        6        8       0
                maintext                             61       61       2A        8       0
                cstackBANK0                          26       26        6       20       1
                bssBANK0                             20       20        6       20       1

TOTAL           Name                               Link     Load   Length     Space
        CLASS   STACK          

        CLASS   CODE           
                end_init                              B        B        1         0
                cinit                                 C        C        9         0
                intentry                              4        4        7         0
                reset_vec                             0        0        1         0
                text3                                8B       8B        F         0
                text2                                15       15       4C         0
                text1                                9A       9A        6         0
                maintext                             61       61       2A         0

        CLASS   STRCODE        

        CLASS   STRING         

        CLASS   CONST          

        CLASS   ENTRY          

        CLASS   BANK0          
                cstackBANK0                          26       26        6         1
                bssBANK0                             20       20        6         1

        CLASS   RAM            

        CLASS   ABS1           
                abs_s1                               5E       5E        2         1

        CLASS   COMMON         

        CLASS   SFR0           

        CLASS   SFR1           

        CLASS   CONFIG         
                config                             2007     2007        1         0

        CLASS   IDLOC          

        CLASS   EEDATA         

        CLASS   BANK1          



SEGMENTS        Name                           Load    Length   Top    Selector   Space  Class     Delta

                reset_vec                      000000  000001  000001         0       0  CODE        2
                intentry                       000004  00009C  0000A0         8       0  CODE        2
                bssBANK0                       000020  00000C  00002C        20       1  BANK0       1
                config                         002007  000001  002008      400E       0  CONFIG      2


UNUSED ADDRESS RANGES

        Name                Unused          Largest block    Delta
        BANK0            002C-005D             32           1
        CODE             0001-0003              3           2
                         00A0-03FE            35F
        CONST            0001-0003              3           2
                         00A0-03FE            100
        EEDATA           2100-217F             80           2
        ENTRY            0001-0003              3           2
                         00A0-03FE            100
        IDLOC            2000-2003              4           2
        RAM              002C-005D             32           1
        SFR0             0000-001F             20           1
        SFR1             0080-00DD             5E           1
        STACK            002C-005D             32           1
        STRCODE          0001-0003              3           2
                         00A0-03FE            35F
        STRING           0001-0003              3           2
                         00A0-03FE            100

                                  Symbol Table

PL2                      text3        0091
PL4                      text3        0096
SETpinRST@Status         cstackBANK0  002A
_ANSEL                   (abs)        009F
_CMCON                   (abs)        0019
_GPIO                    (abs)        0005
_GPIO1                   (abs)        0029
_GPIO2                   (abs)        002A
_GPIO3                   (abs)        002B
_GPIO4mirror             bssBANK0     0024
_INTCONbits              (abs)        000B
_OPTION_REGbits          (abs)        0081
_SETpinRST               text1        009A
_TMR0                    (abs)        0001
_TRISIO0                 (abs)        0428
_TRISIO1                 (abs)        0429
_TRISIO2                 (abs)        042A
_TRISIO3                 (abs)        042B
_TRISIO4                 (abs)        042C
_TRISIO5                 (abs)        042D
__CFG_BOREN$OFF          (abs)        0000
__CFG_CP$OFF             (abs)        0000
__CFG_CPD$OFF            (abs)        0000
__CFG_FOSC$INTRCIO       (abs)        0000
__CFG_MCLRE$OFF          (abs)        0000
__CFG_PWRTE$ON           (abs)        0000
__CFG_WDTE$OFF           (abs)        0000
__Habs1                  abs1         07FE
__Hbank0                 bank0        07FE
__Hbank1                 bank1        07FE
__HbssBANK0              bssBANK0     07FE
__Hcinit                 cinit        0015
__Hclrtext               clrtext      07FE
__Hcode                  code         07FE
__Hcommon                common       07FE
__Hconfig                config       2008
__HcstackBANK0           cstackBANK0  07FE
__HcstackCOMMON          cstackCOMMON 07FE
__Heeprom_data           eeprom_data  0000
__Hend_init              end_init     000C
__Hfunctab               functab      0000
__Hidloc                 idloc        0000
__Hinit                  init         000B
__Hintentry              intentry     000B
__Hmaintext              maintext     07FE
__Hosccal                osccal       03FF
__Hpa_nodes              pa_nodes     07FE
__Hpowerup               powerup      0000
__Hram                   ram          07FE
__Hreset_vec             reset_vec    0001
__Hsfr0                  sfr0         07FE
__Hsfr1                  sfr1         07FE
__Hspace_0               (abs)        2008
__Hspace_1               (abs)        07FE
__Hspace_2               (abs)        0000
__Hspace_3               (abs)        0000
__Hstack                 stack        0000
__Hstrings               strings      07FE
__Htext                  text         07FE
__Labs1                  abs1         07FE
__Lbank0                 bank0        07FE
__Lbank1                 bank1        07FE
__LbssBANK0              bssBANK0     07FE
__Lcinit                 cinit        000C
__Lclrtext               clrtext      07FE
__Lcode                  code         07FE
__Lcommon                common       07FE
__Lconfig                config       2007
__LcstackBANK0           cstackBANK0  07FE
__LcstackCOMMON          cstackCOMMON 07FE
__Leeprom_data           eeprom_data  0000
__Lend_init              end_init     000B
__Lfunctab               functab      0000
__Lidloc                 idloc        0000
__Linit                  init         000B
__Lintentry              intentry     0004
__Lmaintext              maintext     07FE
__Losccal                osccal       03FF
__Lpa_nodes              pa_nodes     07FE
__Lpowerup               powerup      0000
__Lram                   ram          07FE
__Lreset_vec             reset_vec    0000
__Lsfr0                  sfr0         07FE
__Lsfr1                  sfr1         07FE
__Lspace_0               (abs)        0000
__Lspace_1               (abs)        0000
__Lspace_2               (abs)        0000
__Lspace_3               (abs)        0000
__Lstack                 stack        0000
__Lstrings               strings      07FE
__Ltext                  text         07FE
__S0                     (abs)        2008
__S1                     (abs)        002C
__S2                     (abs)        0000
__S3                     (abs)        0000
___int_sp                stack        0000
___latbits               (abs)        0000
___osccal_val            osccal       03FF
___sp                    stack        0000
__end_ofPL2              text3        0096
__end_ofPL4              text3        009A
__end_of_SETpinRST       text1        00A0
__end_of__initialization cinit        0013
__end_of_main            maintext     008B
__end_of_myIsr           text2        0061
__end_ofi1_SETpinRST     text3        0091
__initialization         cinit        000C
__pbssBANK0              bssBANK0     0020
__pcstackBANK0           cstackBANK0  0026
__pcstackCOMMON          cstackCOMMON 0000
__pintentry              intentry     0004
__pmaintext              maintext     0061
__ptext1                 text1        009A
__ptext2                 text2        0015
__ptext3                 text3        008B
__size_of_SETpinRST      (abs)        0000
__size_of_main           (abs)        0000
__size_of_myIsr          (abs)        0000
__size_ofi1_SETpinRST    (abs)        0000
_cntRST                  bssBANK0     0020
_cntWD                   bssBANK0     0022
_lastGPIO4mirror         bssBANK0     0025
_main                    maintext     0061
_myIsr                   text2        0015
btemp                    (abs)        005E
end_of_initialization    cinit        0013
i1SETpinRST@Status       cstackBANK0  0026
i1_SETpinRST             text3        008B
interrupt_function       intentry     0004
intlevel0                functab      0000
intlevel1                functab      0000
intlevel2                functab      0000
intlevel3                functab      0000
intlevel4                functab      0000
intlevel5                functab      0000
ltemp                    (abs)        005E
ltemp0                   (abs)        005E
ltemp1                   (abs)        0062
ltemp2                   (abs)        0066
ltemp3                   (abs)        0060
reset_vec                reset_vec    0000
saved_w                  (abs)        005E
stackhi                  (abs)        0000
stacklo                  (abs)        0000
start                    init         000B
start_initialization     cinit        000C
ttemp                    (abs)        005E
ttemp0                   (abs)        005E
ttemp1                   (abs)        0061
ttemp2                   (abs)        0064
ttemp3                   (abs)        0067
ttemp4                   (abs)        005F
wtemp                    (abs)        005E
wtemp0                   (abs)        005E
wtemp1                   (abs)        0060
wtemp2                   (abs)        0062
wtemp3                   (abs)        0064
wtemp4                   (abs)        0066
wtemp5                   (abs)        0068
wtemp6                   (abs)        005F


FUNCTION INFORMATION:

 *************** function _main *****************
 Defined at:
		line 125 in file "main.c"
 Parameters:    Size  Location     Type
		None
 Auto vars:     Size  Location     Type
		None
 Return value:  Size  Location     Type
                  2   58[None  ] int 
 Registers used:
		wreg, status,2, status,0, pclath, cstack
 Tracked objects:
		On entry : 
		On exit  : 
		Unchanged: 
 Data sizes:     COMMON   BANK0
      Params:         0       0
      Locals:         0       0
      Temps:          0       0
      Totals:         0       0
Total ram usage:        0 bytes
 Hardware stack levels required when called:    3
 This function calls:
		_SETpinRST
 This function is called by:
		Startup code after reset
 This function uses a non-reentrant model


 *************** function _SETpinRST *****************
 Defined at:
		line 163 in file "main.c"
 Parameters:    Size  Location     Type
  Status          2    4[BANK0 ] int 
 Auto vars:     Size  Location     Type
		None
 Return value:  Size  Location     Type
                  1    wreg      void 
 Registers used:
		wreg, status,2, status,0
 Tracked objects:
		On entry : 
		On exit  : 
		Unchanged: 
 Data sizes:     COMMON   BANK0
      Params:         0       2
      Locals:         0       0
      Temps:          0       0
      Totals:         0       2
Total ram usage:        2 bytes
 Hardware stack levels used:    1
 Hardware stack levels required when called:    2
 This function calls:
		Nothing
 This function is called by:
		_main
 This function uses a non-reentrant model


 *************** function _myIsr *****************
 Defined at:
		line 85 in file "main.c"
 Parameters:    Size  Location     Type
		None
 Auto vars:     Size  Location     Type
		None
 Return value:  Size  Location     Type
                  1    wreg      void 
 Registers used:
		wreg, status,2, status,0, pclath, cstack
 Tracked objects:
		On entry : 
		On exit  : 
		Unchanged: 
 Data sizes:     COMMON   BANK0
      Params:         0       0
      Locals:         0       0
      Temps:          0       2
      Totals:         0       2
Total ram usage:        2 bytes
 Hardware stack levels used:    1
 Hardware stack levels required when called:    1
 This function calls:
		i1_SETpinRST
 This function is called by:
		Interrupt level 1
 This function uses a non-reentrant model


 *************** function i1_SETpinRST *****************
 Defined at:
		line 163 in file "main.c"
 Parameters:    Size  Location     Type
  Status          2    0[BANK0 ] int 
 Auto vars:     Size  Location     Type
		None
 Return value:  Size  Location     Type
                  1    wreg      void 
 Registers used:
		wreg, status,2, status,0
 Tracked objects:
		On entry : 
		On exit  : 
		Unchanged: 
 Data sizes:     COMMON   BANK0
      Params:         0       2
      Locals:         0       0
      Temps:          0       0
      Totals:         0       2
Total ram usage:        2 bytes
 Hardware stack levels used:    1
 This function calls:
		Nothing
 This function is called by:
		_myIsr
 This function uses a non-reentrant model



MODULE INFORMATION

Module		Function		Class		Link	Load	Size
shared
		i1_SETpinRST   		CODE           	008B	0000	7
		__initialization		CODE           	000C	0000	8
		PL2            		CODE           	0091	0000	6
		PL4            		CODE           	0096	0000	5

shared estimated size: 26

main.c
		_SETpinRST     		CODE           	009A	0000	7
		_main          		CODE           	0061	0000	43
		_myIsr         		CODE           	0015	0000	77

main.c estimated size: 127

